:020000040800F2
:10000000C02E0024BD29000807C40008A929000843
:10001000A9290008A9290008A92900080000000052
:10002000000000000000000000000000812A00081D
:10003000A929000800000000212A0008698700089B
:10004000412C0008412C0008412C0008412C0008DC
:10005000412C0008412C0008412C0008412C0008CC
:10006000412C0008412C0008412C0008412C0008BC
:10007000412C0008412C0008412C0008412C0008AC
:1002CC0080F0004002E000BF81F0004142001FBFFF
:1002DC005FEA410392EA030F7FEA226C7FEA236C08
:1002EC006AD04FEA1262D2EB1363C1BFD2184140FD
:1002FC0048404140B8BF5B42192B88BF704710F093
:10030C00004F40F4000020F07F4018BF404211F035
:10031C00004F41F4000121F07F4118BF494292EA9D
:10032C00030F3FD0A2F1010241FA03FC10EB0C00C9
:10033C00C3F1200301FA03F100F0004302D5494256
:10034C0060EB4000B0F5000F13D3B0F1807F06D303
:10035C0040084FEA310102F10102FE2A51D2B1F1FB
:10036C00004F40EBC25008BF20F0010040EA0300F0
:10037C007047490040EB0000013A28BFB0F5000F70
:10038C00EDD2B0FA80FCACF1080CB2EB0C0200FA26
:10039C000CF0AABF00EBC25052421843BCBFD04075
:1003AC001843704792F0000F81F4000106BF80F4EF
:1003BC0000000132013BB5E74FEA41037FEA226CB2
:1003CC0018BF7FEA236C21D092EA030F04D092F07D
:1003DC00000F08BF0846704790EA010F1CBF0020B1
:1003EC00704712F07F4F04D1400028BF40F000400E
:1003FC00704712F100723CBF00F50000704700F02E
:10040C00004343F0FE4040F4000070477FEA226254
:10041C0016BF08467FEA23630146420206BF5FEA25
:10042C00412390EA010F40F4800070474FF0000325
:10043C0004E000BF10F0004348BF40425FEA000CEC
:10044C0008BF704743F0964301464FF000001CE094
:10045C0050EA010208BF70474FF000030AE000BFEA
:10046C0050EA010208BF704711F0004302D5404228
:10047C0061EB41015FEA010C02BF8446014600209A
:10048C0043F0B64308BFA3F18053A3F50003BCFAB5
:10049C008CF2083AA3EBC25310DB01FA02FC634462
:1004AC0000FA02FCC2F12002BCF1004F20FA02F269
:1004BC0043EB020008BF20F00100704702F120025C
:1004CC0001FA02FCC2F1200250EA4C0021FA02F2BD
:1004DC0043EB020008BF20EADC7070474FF0FF0CC2
:1004EC001CEAD0521EBF1CEAD15392EA0C0F93EABD
:1004FC000C0F6FD01A4480EA010C400218BF5FEA5F
:10050C0041211ED04FF0006343EA501043EA5111D1
:10051C00A0FB01310CF00040B1F5000F3EBF4900CB
:10052C0041EAD3715B0040EA010062F17F02FD2ACF
:10053C001DD8B3F1004F40EBC25008BF20F00100B2
:10054C00704790F0000F0CF0004C08BF49024CEAC9
:10055C00502040EA51207F3AC2BFD2F1FF0340EA5B
:10056C00C250704740F400004FF00003013A5DDCCC
:10057C0012F1190FDCBF00F000407047C2F100020D
:10058C00410021FA02F1C2F1200200FA02FC5FEAFA
:10059C00310040F1000053EA4C0308BF20EADC7044
:1005AC00704792F0000F00F0004C02BF400010F4B6
:1005BC00000F013AF9D040EA0C0093F0000F01F063
:1005CC00004C02BF490011F4000F013BF9D041EA85
:1005DC000C018FE70CEAD15392EA0C0F18BF93EA87
:1005EC000C0F0AD030F0004C18BF31F0004CD8D1B1
:1005FC0080EA010000F00040704790F0000F17BF38
:10060C0090F0004F084691F0000F91F0004F14D07D
:10061C0092EA0C0F01D142020FD193EA0C0F03D1D5
:10062C004B0218BF084608D180EA010000F00040D8
:10063C0040F0FE4040F40000704740F0FE4040F4B3
:10064C00400070474FF0FF0C1CEAD0521EBF1CEA52
:10065C00D15392EA0C0F93EA0C0F69D0A2EB030270
:10066C0080EA010C49024FEA402037D04FF080530A
:10067C0043EA111143EA10130CF000408B4238BFCF
:10068C005B0042F17D024FF4000C8B4224BF5B1ADD
:10069C0040EA0C00B3EB510F24BFA3EB510340EA2B
:1006AC005C00B3EB910F24BFA3EB910340EA9C00D9
:1006BC00B3EBD10F24BFA3EBD10340EADC001B0149
:1006CC0018BF5FEA1C1CE0D1FD2A3FF650AF8B42ED
:1006DC0040EBC25008BF20F0010070470CF0004CFA
:1006EC004CEA50207F32C2BFD2F1FF0340EAC25025
:1006FC00704740F400004FF00003013A37E792F0E6
:10070C00000F00F0004C02BF400010F4000F013A43
:10071C00F9D040EA0C0093F0000F01F0004C02BF3E
:10072C00490011F4000F013BF9D041EA0C0195E7A7
:10073C000CEAD15392EA0C0F08D142027FF47DAF40
:10074C0093EA0C0F7FF470AF084676E793EA0C0F30
:10075C0004D14B023FF44CAF08466EE730F0004C2E
:10076C0018BF31F0004CCAD130F000427FF45CAFBE
:10077C0031F000437FF43CAF5FE700BF42000ED284
:10078C00B2F1FE4F0BD34FF09E03B3EB126209D4C0
:10079C004FEA002343F0004323FA02F070474FF076
:1007AC000000704712F1610F01D1420202D14FF0EB
:1007BC00FF3070474FF00000704700BF53B94AB983
:1007CC00002908BF00281CBF4FF0FF314FF0FF304D
:1007DC0000F00CB8ADF1080C6DE904CE00F01AF87D
:1007EC00DDF804E0DDE9022304B07047704700BF78
:1007FC0010F8012B11F8013B012A28BF9A42F7D0BF
:10080C00D01A7047034613F8012B002AFBD1181A93
:10081C00013870472DE9F04786468C460846089EFD
:10082C00154674461946002B40F0C2808542B2FA38
:10083C0082F245D94AB1C2F1200300FA02FC2EFA29
:10084C0003F3954043EA0C0C94404FEA154EA8B2C2
:10085C00BCFBFEF8230C0EFB18CC08FB00F943EA9A
:10086C000C43994528D9EB1808F1FF3704D2994568
:10087C0002D9A8F102072B44A3EB0903A4B2B3FBE2
:10088C00FEFC0EFB1C330CFB00F044EA0344A042BC
:10089C0014D92C190CF1FF3304D2A04202D9ACF1BB
:1008AC0002032C44241A43EA07401EB1D44000230F
:1008BC0034607360BDE8F0874746DDE76346F1E7D7
:1008CC0092BB431B01214FEA154EAFB2B3FBFEFCAA
:1008DC00200C0EFB1C330CFB07F840EA0343984535
:1008EC0062D9EB180CF1FF3004D2984502D9ACF167
:1008FC0002002B44A3EB0803A4B2B3FBFEFC0EFBDB
:10090C001C330CFB07F744EA0344A7424ED92C19BD
:10091C000CF1FF3304D2A74202D9ACF102032C44F0
:10092C00E41B43EA0040C0E7C2F1200320FA03F1C4
:10093C00954090402EFA03F303434FEA154EAFB2A5
:10094C00B1FBFEFC0EFB1C10190C0CFB07F841EA6A
:10095C000041884504FA02F422D969180CF1FF30E1
:10096C0004D2884502D9ACF102002944A1EB08015C
:10097C009BB2B1FBFEFC0EFB1C110CFB07F743EA10
:10098C0001439F420ED9EB180CF1FF3104D29F4268
:10099C0002D9ACF102012B44DB1B41EA004192E786
:1009AC006046E3E76146F7E76046A3E76346B7E7CF
:1009BC00834206D916B9002108467BE7C6E900E058
:1009CC00F9E7B3FA83F78FB9834201D3724508D89C
:1009DC00BEEB020460EB030301209C461EB9002110
:1009EC0068E73846FAE7C6E9004CF8E7C7F1200C8F
:1009FC00BB4022FA0CF41C432EFA0CF120FA0CF337
:100A0C00B84001434FEA14490EFA07F5B3FBF9F865
:100A1C001FFA84FE09FB18300B0C08FB0EFA43EA94
:100A2C0000439A4502FA07F240D9E31808F1FF3067
:100A3C0004D29A4502D9A8F102002344A3EB0A037D
:100A4C0089B2B3FBF9F809FB183308FB0EFE41EA37
:100A5C0003418E452CD9611808F1FF3304D28E4521
:100A6C0002D9A8F10203214443EA0040A0FB0298FA
:100A7C00A1EB0E014145CE46434602D306D14D456E
:100A8C0004D2B9EB020E68EB04030138002EA6D099
:100A9C00B5EB0E0261EB030101FA0CFC22FA07F331
:100AAC004CEA0303F940C6E9003198E74046C5E734
:100ABC004346D9E737B505463649374802F014FDA9
:100ACC00034638B1354A012135480BF0C5FB0020EF
:100ADC0003B030BD3349304802F006FD034608B17F
:100AEC00314AF0E731492C4802F0FEFC034608B1CC
:100AFC002F4AE8E72F49284802F0F6FC034608B1D4
:100B0C002D4AE0E724480BF040FD012804461BD198
:100B1C0001462A4A204804F0F3FA28B1284A012158
:100B2C001F480BF090FBD2E7264B224621461A4871
:100B3C0004F0F6FC034608B1234AF0E702460090A5
:100B4C00214615480BF028FD0021204A124804F0DC
:100B5C00D7FA014608B11E4AE1E71A4B01220E48AA
:100B6C0004F0DEFC03460028E6D101460246009064
:100B7C0009480BF011FD012107480BF031FD0DB9AF
:100B8C000548A5E7294604480BF035FF0028F7D0A7
:100B9C00104AC4E7D000002468040024A0F900081F
:100BAC0014F50008B8000024CEF90008A0000024B9
:100BBC0000FA0008880000242DFA000830000024F8
:100BCC0055FA000840F500087CFA0008440000249F
:100BDC009BFA0008C2FA000808B5FFF76BFF40B19A
:100BEC00064802F06DFB30B1054A012105480BF0B7
:100BFC002AFB002008BD0148FCE700BF6804002464
:100C0C00E6FA000814F5000813B5064C0B462268EA
:100C1C00032100920448054A0BF028FB206802B01F
:100C2C0010BD00BF881200245CF400086EFB0008A5
:100C3C00024A012102480AF0AEBC00BF80FB00084A
:100C4C005CF40008044A0221044808B50AF0A3FC2D
:100C5C006FF0850008BD00BF9EFB00085CF4000827
:100C6C0007B5C388ADF800308368019300220023D8
:100C7C00694604480DF04DFC08B1FFF7D9FF03B0ED
:100C8C005DF804FBB00300240229F8B5069F03D0DD
:100C9C00BDE8F840FFF7D6BF0F4D002401262868A9
:100CAC0098B106FA04F23B7829791340026906FAE6
:100CBC0001F11268114203D023B183681B6903E070
:100CCC00002BFAD08368DB68984701340835032C75
:100CDC00E5D10020F8BD00BF48F5000880B50C4AEE
:100CEC0000AF0C4B88B0002908BF13466A460A496E
:100CFC00C2E905134FF400739383084B42F8103F7D
:100D0C0000234FF4E651064801F082F8BD4680BD41
:100D1C00B6FB0008C4FB0008D4FB0008030000016C
:100D2C005CF4000898B50E4A00AF0C1E8AB00D4B4F
:100D3C00006808BF13466A46D3610B4B0B4913621C
:100D4C000B4BC2E9051042F8103F00234FF423511E
:100D5C00084801F05DF8084B1C70BD4698BD00BFFB
:100D6C008A21010825FE000800020103EBFB0008A4
:100D7C00040000025CF4000808170024F8B50B7896
:100D8C0000AF6E4688B00B2B05460C4696BF1D4A2D
:100D9C001D4B52F823306A461C49C2E905134FF427
:100DAC00007393831A4B42F8103F00234FF4E65123
:100DBC00184801F02DF82378B546052B05D163684A
:100DCC00154A032113480BF047FA28460BF01DFC7B
:100DDC00B0B1237843B9284602F0B0FA20B10F4ADB
:100DEC0001210C480AF0D7FB2478012C08D12846A5
:100DFC0002F0EAFA20B10A4A214606480AF0CBFB77
:100E0C00BD46F8BD60F5000809FC00080BFC0008A5
:100E1C00030000015CF400081CFC000834FC000812
:100E2C0054FC000807B50B46022100920348044A03
:100E3C000BF01CFA002003B05DF804FB5CF4000816
:100E4C0075FC000813B50B461446032100920448A8
:100E5C00044A0BF00BFA044B1C6002B010BD00BF2F
:100E6C005CF400089FFC0008881200242DE9F04374
:100E7C0085B0774C4FF00008012602AF2568002D95
:100E8C0040D028460DF054FA0346A8B96C4688B0F9
:100E9C00296802AA6F48C2E905014FF400719183D9
:100EAC006D4942F8101F4FF4E2516C4800F0B0FF4E
:100EBC00A5466FF0040443E020682179E388DA0743
:100ECC00D0F810C006FA01FED0F8089054BF43F4D5
:100EDC00B01383F4D013DCF8005023F48012DB073A
:100EEC004CBF45EA0E0525EA0E05CCF80050D9F8A2
:100EFC0000309847034628B1594A012157480BF056
:100F0C00ABF9D6E708F101080834B8F1030FB5D1F5
:100F1C0054480DF00DFA28B9534A01214F480AF0F4
:100F2C003AFBC6E7514B3F2251494E480BF0E7FDC7
:100F3C00044650B14F4A0346012148480BF08CF946
:100F4C0020460C37BD46BDE8F0834B48FFF744FE06
:100F5C00054638B9494A012140486FF012040AF09D
:100F6C001AFBEDE70BF051FB50B9284602F0E6F9FD
:100F7C00044628B1424A012138480AF00CFBDFE74D
:100F8C00404E0321DFF80081404C414A33480AF0BF
:100F9C0002FB4FF0FF324FF0FF333946304608F07A
:100FAC00A1FE3B887A68991E09292DD8DFE801F04B
:100FBC0013191F2C2C2C2C2C2C0552B15323A37041
:100FCC0098F800303BBB334A032124480AF0E3FA7B
:100FDC00DFE7A270F4E712B13923E370F0E7E270B7
:100FEC00EEE712B147232371EAE72271E8E73AB141
:100FFC00402323701E23637142F21F03E380DFE75B
:10100C0022706271E280DBE7032100921348224ACE
:10101C000BF02CF9BDE728460BF0F2FA70B17B68A7
:10102C00002BB6D0284602F007F903460028B0D0B2
:10103C001A4A012109480BF00FF9AAE722460821A8
:10104C0008480BF059FD03460028A2D0144AF0E7DB
:10105C0048F50008B1FC0008030000015CF400082E
:10106C00CCFC000870EE0008F0FC0008E80000243E
:10107C00E1FD000808FD0008890D00082AFD0008A4
:10108C0034FC0008B00300240817002420050024B9
:10109C004AFD000891FD00086DFD0008ADFD00083B
:1010AC00C5FD00082DE9F04F91B0840705460E46AA
:1010BC00009302F00403DDF868800293C2F3C203CC
:1010CC00039203F10103059340F0BA81041D30B182
:1010DC00072909D86FF01B0011B0BDE8F08F01F0A3
:1010EC0007063444C6F10806009B4FF000094FF088
:1010FC00040A591E4FF0FF334F46CB46019353461B
:10110C00CDF810900DB1009A22600598002800F3DC
:10111C00E8809848009A824203D397488242C0F0F4
:10112C00E080039AA4EB050E92074FEA9E0000F1B3
:10113C0003810F2F00F2B180002D00F0058107F123
:10114C0040020DEB020C019A0CF8200C0CF8102C40
:10115C00049801300490E7E07A285DD84B280ED82B
:10116C00472859D829282DD8252852D054D820289A
:10117C007AD02338D0F1000B4BEB000B74E04C38D9
:10118C002E2849D8DFE800F07048484848484848BD
:10119C00484848484B484848484848484859484BAC
:1011AC004B595959704B6D487048184B1848488228
:1011BC007F4B48484B487F0000204FF0000B4FF00E
:1011CC00040A38E02A380122C0B202FA00F010EA10
:1011DC000E0F49D110F0625C2FD110EA020B43D0F4
:1011EC006046013C5444B4FBFAF40AFB04F4002DB1
:1011FC0061D0A3EB050CA444B4453FF66BAF0028BB
:10120C0068D1042B47D158F8043B236004340423E1
:10121C002AE0019A013A01924FF0000B24E011F8F8
:10122C00010C6C2834D111F8023C00206C2B834645
:10123C00C5D14FF0080A5346D3E708F10708073425
:10124C0028F0070824F00704F8E802AB35B106983B
:10125C002044B0423FF63EAFC4E900AB08344FF037
:10126C00000B4FF0080A534611F8010F002878D0F4
:10127C00BBF1000F7FF470AF2528F5D1019B4FF027
:10128C00010B013301934FF0040AECE7584694E745
:10129C0000208346A5E7082B02D06FF015001BE752
:1012AC0008F1070828F00708F8E80223C4E900232E
:1012BC0008340823D8E768B9042B02D108F10408D4
:1012CC00A4E7082BE9D108F1070828F0070808F172
:1012DC000808EDE7059A013A059258F8042B00929C
:1012EC0010E7039A900720D5A4EB050E4FF0010CE4
:1012FC004FEA9E00BEF5007FCFD20F2FCDD8F5B1AF
:10130C0007F14002C0B20DEB020E019A0EF8200C50
:10131C000EF8102CBCF1000F3FF41AAF60F07F00F8
:10132C0009F101090EF8200C0137C5F1080204344B
:10133C004FF6DA7E069297E74FF0000CDAE7BCF135
:10134C00000F01D00136EFE7029802360028EBD1EE
:10135C000098CDE90631FFF755FA0644DDE9063170
:10136C00E2E7631BB3F5806F97D23DB9A6F1080491
:10137C00E018B1E6F4EB0008DC2701089B08029AA0
:10138C0028602B709DF81030C2B1EB7085F802907C
:10139C00B9F1000F05D008A80022C5F1010C974245
:1013AC000ED1C5F101030DF120084FF0000A0DF12B
:1013BC00300B0193574512D1601B8DE66B70E5E73E
:1013CC0010F8013B190608D50CEB040E03F07F0353
:1013DC00B6453FF67FAE04F8013B0132DFE7B9F1C9
:1013EC00000F03D098F90020002A17DB029BD3B121
:1013FC001AF80B2004F8012B0022019B1819104439
:10140C00B0423FF667AE98F80000009904F8010B63
:10141C00204603920DF05CFB039A14440AF1010A76
:10142C0008F10108C6E798F8002055F8223000931F
:10143C00029B009845F82230FFF7E4F9421CDCE7E8
:10144C006FF00D0048E600BF2DE9F04F97B0044651
:10145C00894600AF90F802A0D7F880B03B62CBF37E
:10146C00C003FA62BB6141B9457800780AEB800091
:10147C0020444D4517D8A0EB0409E378FB61BAF181
:10148C00000F02D01BF0010F16D1FB6953BBFB6A96
:10149C001BB13A6A4946204698474D4628465C3768
:1014AC00BD46BDE8F08F461C09F101093046FFF737
:1014BC00A9F901303044DCE72378626899007A623C
:1014CC00FA6A796104EB8301002A40F000814D46F1
:1014DC000E4601EB0A094FF000084E454CD101EBCA
:1014EC000A0610E01BF0020FD1D023789A0004EB0F
:1014FC0083017A6162687A62FA6A002A77D14D4672
:10150C0001EB0A0690461BF0050F0CBF02230123CA
:10151C00FB62FB6906EB430A0BF00203BB62564508
:10152C00BCD016F8021B16F8013C54F82390994BCA
:10153C00994502D3984B994536D3BB69002B40D0C3
:10154C00786A0AF025FB00283BD0E9468AB06A4647
:10155C00924B53617B6AC2E906314FF400731384DA
:10156C008F4B42F8103F00234FF412518D48023D2F
:10157C0000F04EFCCD46D2E716F8013BF96254F868
:10158C002300FFF73FF9D7F884300130F96A4BB1EB
:10159C00D7F8883098453EBFD7F8843023F8180028
:1015AC0008F10108054498E7BB6923B1786A0AF091
:1015BC00EFFA0028C9D11BF0010F05D1FB6AED1A17
:1015CC00ADE7BB6A002BAAD04846FFF71BF9D7F84A
:1015DC00843053B1D7F8883098453FBF431CD7F8B7
:1015EC00842022F8183008F10108054497E7BAF175
:1015FC00000F72D01BF0040672D0D046002607F103
:10160C00480052463B61B9620DF062FAB96A3B6917
:10161C0001EB0A02F969BA62FA695200FA60BA6A15
:10162C0002EB41023A610BF00202BA603A69B96A04
:10163C008A4257D11BF0020F62780CBF4FEA580157
:10164C0000217A621BF0010F3244D2B240F09F802D
:10165C001BF0040F14BF40460020BB616270A070E9
:10166C002046E1703A6A7969FB6A9847051EFFF6D5
:10167C0015AFBB6941463A6A07F1480023707B6A93
:10168C0084F802A06370FB69E370FB6A9847B0F1C1
:10169C000008C0F2BB807B69A9EB0A013A6AC91A3F
:1016AC00FB68C91AD7E90A0398470028C0F2B08032
:1016BC00A8444FF0000B07F1380A08EB0005B345BE
:1016CC0072D300213A6AFB6A08469847E6E656460A
:1016DC004FF0000807F1380093E75646D04697E7DD
:1016EC00B04695E7BA6A12F8021B12F8015CBA62AE
:1016FC0054F82500274A904202D3274A90421ED321
:10170C00BA6932B1786A7B600AF042FA7B680028C9
:10171C008CD1BA6802BB08F1280207F1300C08F131
:10172C00010008F10208944407F158025FFA88F8A6
:10173C0052FA80F00CF8101C00F8105C76E7BA69CD
:10174C003AB1786A7B600AF023FA7B6800287FF450
:10175C006DAF1BF0010F09D006F1280207F1300024
:10176C00711C161806F8205CCEB25FE71BF0040F54
:10177C003FF45CAF08F1280207F1300008F10101D9
:10178C0002EB000808F8105C5FFA81F84EE70020C5
:10179C0063E700BFF4EB0008DC270108F1FE00084A
:1017AC000400000124F400081BF80A3054F82390BC
:1017BC0087F83730D7F884302BB3D7F888309B456F
:1017CC0021D2D7F8843033F81B803A6A012107F113
:1017DC003700FB6A984700281ADB0544B8F1000F64
:1017EC0006D14846FFF70EF800F101081FFA88F8F9
:1017FC003A6A41464846FB6A9847002808DB05448C
:10180C000BF1010B5BE74FF00008DEE7454645E6C0
:10181C00054643E6014B1860704700BF0C010024DD
:10182C0080B505460E461746984609F0B9F8DFF81C
:10183C00209003460DF0CEF90446424649F800309C
:10184C0039463046A84754F8090001F0CDF800BFDE
:10185C0008000000054B00205A6822F002025A6072
:10186C005A6822F001025A60704700BF0010005CF9
:10187C004FF000530021034A43F8041B9342FBD161
:10188C00704700BF0000022008B501F013FA01F008
:10189C00E3F90C4B0C4A1A600C4AD36823F007038B
:1018AC0043F00203D3600A4B1A6841F20303B3EB13
:1018BC00124F06D1074AD2F8083143F00103C2F89F
:1018CC00083108BD740200240090D003004802586F
:1018DC000010005C008000512DE9F04704460746DB
:1018EC004FF00109DFF8508014B93846BDE8F08795
:1018FC0094FAA4F5B5FA85F509FA05F32E0108EB6F
:10190C0005156FEA030A24EA03042B7B002BEBD0AA
:10191C0058F806301B694BB946440422284607EA9E
:10192C000A07736819680AF01EFCDDE72846984719
:10193C000028D9D1F0E700BF1CF5000830B5002213
:10194C0089B00F490F480DF094F8002200230024B1
:10195C000D4D0E4928460094CDE906230E234FF475
:10196C004072CDE90334CDE90144094B08F068FD20
:10197C00084928460CF0FEFE204609B030BD00BFD9
:10198C00A5190008C80900244005002440170024AC
:10199C00C11C0008D6FF0008014808F0FFBA00BFC0
:1019AC00000400242DE9F047804620480F460AF039
:1019BC00B2FB0646002832D000252846BDE8F08749
:1019CC00237B83B12368DB680BB12046984763689F
:1019DC0083F8069023681B69CBB963680422204600
:1019EC0019680AF0C0FB013610345445E8D3B8F13D
:1019FC00000FE2D0002DDFD02846FFF76DFF054623
:101A0C00002FF7D0002164200CF065FFF2E7204690
:101A1C0098470028E1D009FA06F31D43E3E7044C8C
:101A2C000546DFF810A04FF00109DEE79C120024F8
:101A3C001CF500082CF50008014B53F820007047EA
:101A4C00D0F5000808B5034608462BB1044A1360CC
:101A5C0000F074FC002008BD6FF01500FBE700BF20
:101A6C001001002410B5044C237813B9034808F076
:101A7C0095FA0123237010BD0917002400040024DB
:101A8C0010B504460B480AF046FB5CB10A4BBFF399
:101A9C005B8F53E8001F013943E80012002AF8D18C
:101AAC00BFF35B8F05480CF0F0FF0548BDE8104014
:101ABC0008F074BA9412002498120024C809002467
:101ACC00000400240020064BBFF35B8F014653E853
:101ADC00000F43E80012002AF9D1BFF35B8F704767
:101AEC009412002470B5FFF7EDFF084C0546084E24
:101AFC00B44200D370BD63685B792BB123685B681B
:101B0C0013B12946204698471034F1E71CF500081C
:101B1C002CF5000810B5044C044920460AF06FF966
:101B2C00034B1C6010BD00BF44030024BCF500082F
:101B3C008C12002400230D4A4FF47A710C4810B516
:101B4C0013700C4A13600C4A1360FFF77BFFFFF70E
:101B5C00E1FF0A4B0A4918468B4200D310BD1A1AF2
:101B6C005C681033121101322271F5E70A17002458
:101B7C003DC1000894120024981200241CF50008A2
:101B8C002CF5000801460022002301480AF058B940
:101B9C004403002401480AF0F1B900BF44030024B7
:101BAC00024B014618680AF044BA00BF8C1200249C
:101BBC0001480AF079BA00BF44030024264B70B5E3
:101BCC001878002846D0FFF7E5FF054600283ED1DF
:101BDC00224B234C1B68002B12DD0CF002FF0A2257
:101BEC000023FEF7EBFDD4E90032C01A40F2E933D2
:101BFC0061EB0201984271F1000101D3FFF772FF12
:101C0C00D4E9003213F57A7342F10002C4E90032D0
:101C1C00BDE87040FFF7CCBF63685B7923B12368E4
:101C2C00294620461B6898471034B442F4D3284602
:101C3C00FFF7B6FF0B4BBFF35B8F53E8001F013967
:101C4C0043E80012002AF8D1BFF35B8FC0E7064CC3
:101C5C00064EEAE770BD00BF091700249412002459
:101C6C00C0090024981200241CF500082CF500086B
:101C7C0070B50D4D297861B90C4C01200C4EFFF755
:101C8C0091FEB44206D3FFF799FF0028FBD1012344
:101C9C002B7070BD63685B791BB1236820469B6811
:101CAC0098471034EDE700BF0A1700241CF5000814
:101CBC002CF5000800212DE9F0470846FFF772FECD
:101CCC00044658B34FF4FA784FF000091C4B0CF053
:101CDC0081FF1C4A1B58136033B11B4B1B68092B2B
:101CEC0002DD1A4808F05AF90025194FDFF85CA0FC
:101CFC0044B12046FFF7F0FD044618B94FF0FF3809
:101D0C004FF0FF39FFF75AFF064628B9B5B94246DE
:101D1C004B46504608F076F93546E9E74FF0FF3868
:101D2C004FF0FF39D2E72B689B691BB10022284684
:101D3C00114698471035BD42F5D3E8E7054DFAE753
:101D4C0008000000901200249812002400040024C3
:101D5C002CF500081CF5000813B518480AF0DBF93F
:101D6C00174B1B7873B1EFF31184102383F3128894
:101D7C00BFF36F8FFFF722FF84F31188BFF36F8FD0
:101D8C0002B010BD0F4B1B68002BF9D050B90022CC
:101D9C0000230D48CDE9002342F21072002309F014
:101DAC00F1F8EDE70928EBD107480CF06EFE074877
:101DBC0002B0BDE8104008F0F1B800BF9812002442
:101DCC000A17002490120024C809002400040024DF
:101DDC00064B10B504461B6898472146A060044882
:101DEC000AF0ADF8BDE81040FFF7B6BF10010024B3
:101DFC0044030024044A054B9B1AB1EBD30F34BFA8
:101E0C0052F831000020704724F400081CF500083B
:101E1C002DE9F04F8FB0C1F34A280D46914604AF1F
:101E2C000C0DB8607B60B8F1000F63D0002607F191
:101E3C0014034FF0040B4FF00A0AC7F80C8032461B
:101E4C007E624846C7E90766019307F11C03CDF88B
:101E5C0008B0CDF800A0F968FFF7F6FAB0F5006FFE
:101E6C0003461CD36C468AB0D9F8041004AB264840
:101E7C001A46C3E9050140F2FF71D9614FF40071B4
:101E8C001984224B42F8103F4FF41251334620482C
:101E9C00FFF7BEFFA5462C37BD46BDE8F08FC0F35B
:101EAC000A0804F117003B60184468F3532520F02E
:101EBC0007008008FFF766FE044690B13B6800F10E
:101ECC001001144A4846F961C7E9083607F11403B2
:101EDC00CDF808B0CDE900A307F11C03F968FFF7B2
:101EEC00B3FA68F353257B68B96820462A460AF092
:101EFC005AF9D0E704F1170020F007008008FFF72B
:101F0C0041FE0446EDE700BFEBFF000804000001B2
:101F1C0044F4000885C100082DE9F04F87B0044651
:101F2C00934698460391DDE91279DDE9105ABFB169
:101F3C003B46524610210020CDF80090CDF814906D
:101F4C00FFF7B0F8B0F5006F06460AD340F2FF7306
:101F5C00174A0221174807B0BDE8F04F0AF07CB9C8
:101F6C003E4604F0070405F117000BF0070BE400E4
:101F7C00304444EA8B1420F0070044EA46248008DD
:101F8C0044EA0554FFF7FEFD054640B13FB13B4620
:101F9C00524631461030CDF80090FFF783F8434697
:101FAC0022460399284607B0BDE8F04F0AF0FBB86B
:101FBC002A00010844F40008406820B1034BC01A01
:101FCC0040F3CF0070474FF0FF30704724F4000807
:101FDC000EB403B503AB0146054853F8042B01932B
:101FEC0001F004F802B05DF804EB03B0704700BFD9
:101FFC00C7C20008CA0605D48B064CBF0249034968
:10200C00FFF7E6BF704700BF6300010862000108DC
:10201C002DE9F04F89B09B4604460D46149B904623
:10202C009DF84CA00693159B179E0593169B049345
:10203C00BAF1000F00F09D8006F4807306F00209DF
:10204C0007930AF08EF8024600283ED091492046AC
:10205C00FFF7BEFF0746B9F1000F08D016F0440F8A
:10206C0035D12A468C492046FFF7B2FF074406F0CB
:10207C00010353B1894B2046894953F82A20894BD7
:10208C00002A08BF1A46FFF7A3FF06F48073002B43
:10209C0049D006F00803002B63D1B8F1000F66D0CD
:1020AC00424681492046FFF793FF0546069B3D4477
:1020BC00002B6DD1049B002B73D1F30700F1E4804E
:1020CC0031462046FFF796FFD8E00746C3E7774B2B
:1020DC0018680028CAD0764B4FF47A794FF03C0C34
:1020EC001B68B5FBF3F5B5FBF0F100FB11554FF494
:1020FC00616309FB05F5B1FBF3F2B5FBF0FE03FBE5
:10210C00121100FB1E55B1FBFCF309FB05F50CFB92
:10211C001311B5FBF0F5009120466649CDE901E5B8
:10212C00FFF756FFA2E706F00803EBB1624B20461F
:10213C00624953F82A20FFF74BFF0546B8F1000F10
:10214C0005D0424658492046FFF742FF0544BBF1F3
:10215C00000FABD05A465A492046FFF739FF0544C9
:10216C00A4E74FF0000BE1E706F00805E6E745466B
:10217C009CE7BBF1010F069B06D1002B64D1049B9D
:10218C00002B7BD000250CE0002BF8D04D485CE0F8
:10219C004D48069B22464D4909F0C9FC049B002B77
:1021AC0068D0DFF82C81DFF82C91049F4FF0000BE6
:1021BC0031462046102F28BF1027FFF71BFF5D4527
:1021CC0045DC059B4FF0010B494620461A78FFF77A
:1021DC00FFFE1BF0070F03D141462046FFF7F8FE28
:1021EC005F453BD9059B4946204613F80B20FFF76A
:1021FC00EFFE0BF1010BBBF1100FEAD14FF0000B0E
:10220C0035492046FFF7E4FE5A46059B20469A5C6A
:10221C00A2F120015F29314928BF2E22FFF7D8FEF9
:10222C000BF1010BBBF1100F1DD01BF0070F03D1ED
:10223C0041462046FFF7CCFE5F455A46E5D841465D
:10224C002046FFF7C5FEEBE71F485546A1E7414680
:10225C0020460BF1010BFFF7BBFEB0E720492046EF
:10226C00FFF7B6FEC5E7059B3B440593049BDB1BC0
:10227C0004939AD1BAF1000F7FF41FAF204609B036
:10228C00BDE8F04F0AF00CB8064A20460449FFF7A7
:10229C009FFE15E76A0001086E000108E0F50008D2
:1022AC0019FC00086500010893000108A412002421
:1022BC00A012002477000108F4F50008970001082B
:1022CC009D000108FDC20008C7C20008F92F0008D4
:1022DC00AA000108A2000108AC000108AE00010828
:1022EC00A800010842F20F73114A8B4273B50446E1
:1022FC0028BF0B4605680521684608F0C5FE6368D3
:10230C0006460B2228465B680A4909F0BBFF636846
:10231C003246694628465B6809F0B4FF63681B22A5
:10232C0005495B68284609F0ADFF02B070BD00BFDF
:10233C009B230108CD000108B100010800210123F5
:10234C00064A904206D8064A01B901231360054B90
:10235C0018607047400801215B00F2E740420F0013
:10236C00A0120024A4120024F8B50D460446461809
:10237C00054FB44201D12846F8BD14F8011BBB68C7
:10238C0001485B689847F4E754EE0008014B036082
:10239C00012070473CF6000806480021064A08B5A3
:1023AC00121A0AF022F80548054A0021121A0AF0FE
:1023BC001CF808BD20050024101700240000002084
:1023CC00000000200A480B4A0B49121A08B50AF003
:1023DC000EF80A480A4A0B49121A0AF008F80A4879
:1023EC000A4A0B49121ABDE808400AF000B800BFAF
:1023FC000000002414050024DC2701080000002440
:10240C0000000024DC270108000000200000002050
:10241C00F02C01082DE9F047064600AF0C460029C8
:10242C0036D0E9468AB0A3686D46D1E9001221483E
:10243C004FF0050AA846C5E90501C5E9072348F888
:10244C0010AF002342464FF421511B48FFF7E0FC2C
:10245C00CD466369AD46D4E903121848C5F810A0FF
:10246C00C5E90501C5E90723002342464FF4215174
:10247C001148FFF7CDFCCD46E369114A01210E4806
:10248C0009F0EAFEA3690F4A01210B4809F0E4FEAA
:10249C00012E07D1EFF305830B4A103B314606485A
:1024AC0009F0DAFE2146304607F0CCF9BD46BDE80E
:1024BC00F08700BF230101087CF4000852010108D9
:1024CC008101010890010108BE01010830BFFFF72E
:1024DC00FDBF00BF2DE9F0410B4E0546DFF82C8007
:1024EC00324606EB0807CC1B094920460CF0F0FAE3
:1024FC00A019083C424600210CF0F8FA07F108003C
:10250C002C67BDE8F08100BF00000000080000004F
:10251C0038F50008054B5A699B689A4204D0044A66
:10252C00536843F080535360704700BFD4160024A7
:10253C0000ED00E070B5294C06460D4628482949A7
:10254C0009F062FFA36AD9043CD52548264909F055
:10255C005BFF1720A36A1A0504D52148234909F00B
:10256C0053FF18201D4CA36A9B0512D51C4820490B
:10257C0009F04AFFA36BA26A100409D51D4A012178
:10258C00174809F069FE1EB1A36A23F40043A36245
:10259C001920124CA36A590504D51148164909F0A3
:1025AC0033FF1A20A36ADA050ED50D48134909F03A
:1025BC002BFF1B20094A936A43F47F439362002349
:1025CC002B7070BD1620C5E7A36A9B04F2D5044896
:1025DC000B4909F019FF1C20ECE700BF00ED00E0EF
:1025EC007CF40008D1010108E7010108F801010899
:1025FC000B020108240201083902010854020108E7
:10260C006C02010810B5204C2049214809F0FCFE51
:10261C00A36A990136D51E481E4909F0F5FE1E2005
:10262C00A36ADA0104D51A481B4909F0EDFE1F20F4
:10263C00154CA36A1B0304D51548184909F0E4FE90
:10264C002120A36A590304D51148154909F0DCFE71
:10265C0022200D4CA36A9A0304D50D48114909F0A8
:10266C00D3FE2320A36ADB0304D509480E4909F0E5
:10267C00CBFE2420044A936A6FEA03436FEA1343A8
:10268C00936210BD1D20CBE700ED00E09B0201081A
:10269C007CF40008B3020108C6020108E00201083C
:1026AC00FE020108230301083D0301082DE9F8434C
:1026BC00364D8046894636483649174609F0A4FE01
:1026CC00AB6ADE0627D511243349314809F09CFE4C
:1026DC00AB6A1D0704D5122430492D4809F094FE2D
:1026EC002A4DAB6A980718D52D49294809F08CFE5C
:1026FC006E6BAB6A190646D52A4A3346012124482B
:10270C0009F0AAFDB9F1000F03D0AB6A23F08003E6
:10271C00AB62132403E01024DAE76FF015061B4DAF
:10272C00AB6ADA0704D514241F49194809F06CFE6A
:10273C00AB6A9B0604D515241C49154809F064FEA8
:10274C00124B9A6AD50602D49A6A90070AD55B682E
:10275C00190507D54146304600F026FA10B180F332
:10276C0009880224094B9A6A920603D55A6A22F404
:10277C0000525A629A6A204642F0FF029A62002383
:10278C003B70BDE8F8836FF01506C2E700ED00E082
:10279C007CF40008680301087E030108F8010108B5
:1027AC00B1030108C9030108DF0301086C02010829
:1027BC002DE9F041664B8AB004460026D3F804801C
:1027CC0000AFC8F3080586F31188BFF36F8F02F0D2
:1027DC007F43B3F17F4F07D102F00C03082B12D1CA
:1027EC005C495D4809F010FE002634460023FB715D
:1027FC00EB1E092B00F28B80DFE803F00A81847D4D
:10280C0089898989898710074CBF0C460126EDE719
:10281C005249514809F0F8FD4D4D0023FB71EB6A0C
:10282C009A0705D54E494C4809F0EEFD002332E0DD
:10283C00EB6A002B01DA4B49F5E7EB6A5B00F5D547
:10284C004949454809F0E0FD6B69A26943F480737E
:10285C006B61BFF34F8FBFF36F8F6B6932F8022C34
:10286C0023F480736B61BFF34F8FBFF36F8F4DF603
:10287C0002739A4208D0AB6ADBB27BB3FA1D01211A
:10288C002046FFF713FF38E02368384A012132480D
:10289C0009F0E2FC2368FA79E2B907F1080504F1C2
:1028AC00200C2068083454F8041C2A46644503C2E2
:1028BC001546F6D17A6A002E45D0C2F3080121B92B
:1028CC006FEA52226FEA42227A6207F10801184637
:1028DC00FFF7A0FD2837BD46BDE8F081AB6A13F4C5
:1028EC007F4F04D0F91D0120FFF724FE05E0AB6AF1
:1028FC00B3F5803F9AD3FFF785FE0346CBE7FA1D6D
:10290C000021BDE7F91D0020EEE719498BE718F40B
:10291C00F87F184AE8468AB0174B18BF13466A4628
:10292C001649103DC2E905134FF40073D5611384A9
:10293C00134B42F8103F00234FF411510648FFF798
:10294C0067FAC54672E722F4FF7222F00102BBE778
:10295C0000ED00E02C0401087CF400085704010889
:10296C006E0401088F0401089D040108BC040108D1
:10297C00D804010813040108FE030108FC04010833
:10298C0004000001044B5A6942F010025A615A6962
:10299C0022F008025A61704700ED00E0EFF3088066
:1029AC00EFF3098101B57246FFF702FF01BD00BFCD
:1029BC000B4880F30888FEF75BFF102080F311882A
:1029CC0008484FF40461401880F30988EFF3148031
:1029DC000221084380F31488BFF36F8F00F0B0F826
:1029EC00C02E002400210024084B9B6883420BD18D
:1029FC00EFF3058343B1064B5A6842F080525A609C
:102A0C005A6A22F400425A6207F0D0BFD41600244E
:102A1C0000ED00E014498A684FF030001044EFF3E9
:102A2C00098C80E8F01F102080F31288BFF36F8FA1
:102A3C000E4F4FF000664A698A603E60106F0C4C76
:102A4C002060506F0023536780F3118804B5104643
:102A5C0000F056F9BDE8044002F1300090E8F01F98
:102A6C008CF3098870470000D416002404ED00E0B4
:102A7C00CC1200241EF0040F0CBFEFF30880EFF310
:102A8C000980816911F8021C0229FFD001B5724638
:102A9C0009F0AFFC01BD00BF00B2002807DB012329
:102AAC00410900F01F00024A834042F82130704770
:102ABC0000E100E000B200280CDB4309012200F029
:102ACC001F0005492033824041F82320BFF34F8F6C
:102ADC00BFF36F8F704700BF00E100E04209054B68
:102AEC0000F01F0053F82220012303FA00F01040DD
:102AFC00704700BF00E100E000B2013100284FEA4E
:102B0C000111C9B206DB00F1604000F5614080F8AC
:102B1C000013704700F00F00014B1954704700BFB1
:102B2C0014ED00E0044B054A23F07F039360BFF3E0
:102B3C004F8FBFF36F8F70470000000800ED00E06F
:102B4C0008B5FFF7EFFF0C4AD2F8883023F4700376
:102B5C00C2F88830EFF3148323F0040383F3148852
:102B6C00BFF36F8FFFF718FCFFF72CFC00F056F843
:102B7C0009F069FC06F08AFF00ED00E042F8203C09
:102B8C00203A009B07495360019B21F0010193609F
:102B9C00029B9161D3604FF08073D3610023026577
:102BAC00436770472D180008094A0346906870B1B6
:102BBC0013F1160F006E05D0A0F140029A4205D811
:102BCC00834203D2814228BF002070470020704707
:102BDC00D416002415460C4A0E4608B50B4B9060D3
:102BEC00026F1A6000F08CF82C4686F309880020DE
:102BFC00034B98472046002100220023014C20471C
:102C0C002BC400082D180008D4160024CC12002464
:102C1C00014B10221A61704700ED00E000230448BC
:102C2C001021C2180133A32B82F80013F9D170477D
:102C3C0000E100E008B5EFF30583064A103B02EB18
:102C4C00C30152F8330049688847BDE80840FFF7D4
:102C5C0061BC00BFA8EE0008154A70B5536913F4A7
:102C6C00803323D1C2F88430BFF34F8FD2F8803039
:102C7C0043F6E074C3F3C900C3F34E335B0103EABC
:102C8C000406014646EA81750139C2F86052F9D250
:102C9C00203B13F1200FF2D1BFF34F8F536943F454
:102CAC0080335361BFF34F8FBFF36F8F70BD00BF85
:102CBC0000ED00E00B4B5A6912F4003211D1BFF356
:102CCC004F8FBFF36F8FC3F85022BFF34F8FBFF3FB
:102CDC006F8F5A6942F400325A61BFF34F8FBFF3C2
:102CEC006F8F704700ED00E0024B0121024A034850
:102CFC0000F08AB800000524000000244CF60008FF
:102D0C00026E4021044B403A18461A60034AC3E94C
:102D1C000112012100F082B8D012002400000B1522
:102D2C0008B503461048D0F89020C2F30722013AA8
:102D3C00934207D90D4801210D4A09F08DFA6FF025
:102D4C00150008BDC0F898300A6822F01F021A431B
:102D5C0042F01002C0F89C208A6842F00102C0F8D0
:102D6C00A0201846EDE700BF00ED00E064F4000879
:102D7C0013050108F0B50E4685B01F460446002524
:102D8C00B5420DDA606810B397B1431E18420AD0F1
:102D9C00104A2B460121104809F05EFA6FF015021B
:102DAC00104605B0F0BD1F28F2D921680B42EFD1B7
:102DBC00236801A9019309F047FBA3680343D0B230
:102DCC000393FFF7ADFF10F1160FE7D0421C01354E
:102DDC000C34D5E73905010864F40008044B0522CE
:102DEC00C3F89420BFF34F8FBFF36F8F704700BFB2
:102DFC0000ED00E0BFF35F8F024B0022C3F894207C
:102E0C00704700BF00ED00E010B5034C01232278A1
:102E1C00FFF7B0FF207010BD0C1700240B4A08B54B
:102E2C0000231278FFF7A6FF10F1160F07D0084AFF
:102E3C000021D2F89030C3F30723984200DB08BD81
:102E4C00C2F898000130C2F8A010F2E70C17002469
:102E5C0000ED00E05F4860492DE9F043D0F8903078
:102E6C0085B00D68C3F307239D4200F2B080FFF7D5
:102E7C00C1FF49680022954201F10C011BD1574C4E
:102E8C006846574F2570FFF781FA00250646DFF894
:102E9C005481DFF85491AE4220D1237800204D4963
:102EAC00D1F89020C2F307229342C0F28A8000200E
:102EBC00FFF794FF4FE0C0F8982051F80C3C23F03A
:102ECC001F031343013243F01003C0F89C3051F838
:102EDC00043C43F00103C0F8A030CCE700984FEA63
:102EEC00051C00EB0511CB683B40B3F5000F49D036
:102EFC000AD8B3F5001F31D0B3F5800F37D0B3F536
:102F0C00801F13D00135C6E7B3F1007F43D0B3F176
:102F1C00805F49D0B3F1807FF4D150F80C308868D1
:102F2C0009F092FA4A6840F0887009E050F80C30C9
:102F3C00886809F089FA40F088504A6840F43020DB
:102F4C00039001A92078CDE90123FFF7E9FE0028C1
:102F5C0033DA6FF0150005B0BDE8F08350F80C3093
:102F6C00886809F071FA4A6840EA0900E8E750F805
:102F7C000C30886809F068FA40F0C0604A6840F488
:102F8C000030DDE750F80C30886809F05DFA4A68CB
:102F9C0040F08270D4E750F80C30886809F054FA8D
:102FAC004A6840F48020CBE750F80C30886809F070
:102FBC004BFA4A6840EA0800C2E7237801332370D1
:102FCC00A0E7C1F898300133C1F8A00068E74FF0D2
:102FDC00FF30C0E700ED00E090F500080C1700246E
:102FEC000000F0FF0000021100000811F0B587B0DE
:102FFC0007460E4614460021102268461D460BF06B
:10300C0075FD02232A4621468DF802306846044B92
:10301C00CDE90476019308F061F807B0F0BD00BF6C
:10302C0075C4000808B5024B1B689847002008BD02
:10303C00DC120024034B044A1860937843F002031B
:10304C0093707047DC1200241C01002406490748C9
:10305C0021F00701C1F1105208B502F5A02208F0C9
:10306C000EFD002008BD00BFD73A0024E01200245A
:10307C0070B541690446857A0B4E59B1437ADB072A
:10308C0006D4242303FB0563DB691B689B68984704
:10309C000023636105EBC505214606EB8500BDE801
:1030AC0070400BF0D8BA00BF200400242422024B3D
:1030BC0002FB0030704700BF20040024827A2421D8
:1030CC00054B01FB02331A6A1B7D801A1B3323F05C
:1030DC000303B0FBF3F070472004002438B524241C
:1030EC00827A064B04FB0233DB69D3E901240C60C2
:1030FC001568FFF7E3FF04FB005038BD20040024E3
:10310C002DE9F04385B0054690461C466846039170
:10311C000BF069FCDDE90067EFF31189102383F3F1
:10312C001288BFF36F8F6B8A002B41D02A8A9A4288
:10313C0025D900220023284606F0FEFE0446F0B1F5
:10314C0089F31188BFF36F8F039B002B41D032465C
:10315C003B4668460BF06CFCA27A2421254B20469A
:10316C0001FB023303A9DB691B681D68DDE9002341
:10317C00A847606170BB2046FFF77AFF24E0698A9C
:10318C004B1E6B8289F31188BFF36F8F2B7D2A8ABC
:10319C001B332C6A521A23F0030302FB0344154B16
:1031AC00154AEB1A9B105343A3722B7DE372CBE7AA
:1031BC0089F31188BFF36F8F23464246284606F0E9
:1031CC00BBFE04460028BFD10024204605B0BDE854
:1031DC00F083636101230025E27A04F11800238156
:1031EC002946039B656063820BF080FC6369258232
:1031FC00E360EAE720040024398EE33870B50D4C07
:10320C00242500B970BD037A4668002BFAD0013B27
:10321C00DBB20372002BF5D1C3604360837A05FBEC
:10322C0003439B6913B198473046EAE7FFF720FF49
:10323C00FAE700BF20040024F8B5836905461B6932
:10324C00D3F8804009F093F9A0070BD46FF08504F4
:10325C00184A0121184809F088F9281D09F08EF93F
:10326C002046F8BD95F87030190701D55A0707D4D8
:10327C00124A022110486FF00C0409F076F9ECE7C1
:10328C00AE693369B768BFF35B8FD3F8A030BFF377
:10329C005B8F9B070AD5FB6B304698473B6A3046E1
:1032AC0098473B6C044630469847D6E74FF0FF34BE
:1032BC00D3E700BF6E050108E4F40008920501088D
:1032CC0038B5044607F078FA204609F050F9A069A1
:1032DC00C8B194F87030DB070DD56FF07705144A40
:1032EC000221144809F041F9201D09F047F907F0B3
:1032FC0077FA284638BD0BF01BF838B90E4A012175
:10330C000C4809F032F96FF01205EDE7204601F098
:10331C0053FC05460028E7D128220146A0180BF0E3
:10332C00E5FB94F8703043F0010384F87030DBE770
:10333C00C5050108E4F40008EF05010838B5054699
:10334C0007F03AFA284609F012F995F87030DA07C6
:10335C000DD44FF0FF34184A0221184809F005F932
:10336C00281D09F00BF907F03BFA204638BD9B07E6
:10337C0007D5134A022111486FF0770409F0F5F8CC
:10338C00EEE7A86909F005FE044628B10D4A0121B3
:10339C000A4809F0EAF8E3E7284609F0C9F90446B7
:1033AC0018B1A86909F022FEDAE795F8703043F0FD
:1033BC00020385F87030D3E712060108E4F4000824
:1033CC00380601085E06010838B590F870300446DE
:1033DC009B0708D46FF07705134A0221134809F0B4
:1033EC00C4F8284638BD09F0C2F80021204601F087
:1033FC002FFE20B10E4A01210C4809F0B6F8A06945
:10340C0009F0F4FD054620B10A4A0121074809F0EC
:10341C00ACF894F87030201D6FF3410384F87030D1
:10342C0009F0ACF8DDE700BF7A060108E4F4000807
:10343C00A1060108BF060108F8B5044600AF0D4609
:10344C0009F095F894F87030DB073CD42B6913B96C
:10345C00EB68002B3AD0A36E9BB96E4688B06A46D7
:10346C001D4951611D499161032142F8101F4FF410
:10347C00C8511B48FEF7CCFC04F16803B546C4E9FF
:10348C001A332E682EBBE36E04F16802C5E90023E3
:10349C001D60E5662B7A6D4688B06A46114951610C
:1034AC000E49C2E90613042342F8103F4FF40451AD
:1034BC0033460B48FEF7ACFCAD46201D09F05EF818
:1034CC003046BD46F8BD4FF0FF36F6E76FF01506F7
:1034DC00F3E76FF07706F0E7DC0601082407010834
:1034EC00E4F40008FF0601082DE9F047054600AF9B
:1034FC000C4600F104094FF0FF324FF0FF33484601
:10350C0006F052FCD5F87880B8F1000F00F0D780A7
:10351C006E6F002E00F0D38095F87030DB0700F151
:10352C00CE802B6D9BB9EA4688B06A4667495161DB
:10353C0067499161032142F8101F4FF4C851654847
:10354C00FEF766FC05F15003D546C5E91433236834
:10355C00002B40F0B780637D0F2B09D1237A012B10
:10356C0025D06B6D05F15002C4E900231C606C651D
:10357C00637D032B40F0968005F150002B6D984233
:10358C005DD1002323726A6DC4E9000214606C657E
:10359C006D4688B0617A6A464F4850614F48C2E91F
:1035AC000601042142F8101F4FF404516BE0E1684E
:1035BC002846FFF741FF82460028D2D0484606F045
:1035CC006BFC5046BD46BDE8F08792F815C0BCF1C7
:1035DC00030F0DD001316D468AB021725368C4E9D6
:1035EC0000231C605460137A6A46217A3C483FE001
:1035FC0092F808C00CF1FF3C61451FD001316D46BB
:10360C008AB021725168C4E900210C605460117AAF
:10361C006A46187A237ADFF8CCC0C2E90813C2F8DC
:10362C0014C00623DFF8B4C0C2E906C042F8103F4C
:10363C0000234FF4445126E09342A2D01B68002B88
:10364C009FD0597D6A6D0329F6D19342197A02D025
:10365C001A68002AB9D1013121726A6DC4E90002DD
:10366C0014606C656D468AB0217A1B7A6A461E48D6
:10367C005061136205231948C2E9060142F8103F54
:10368C0000234FF424511348FEF7C2FB637AAD4676
:10369C00022B0AD0032B0DD0012B03D1237A88F8EF
:1036AC000E30B3734FF0000A88E7237A88F80F3096
:1036BC00F373F7E7237A88F810303374F2E74FF09E
:1036CC00FF3A7BE76FF0770A78E700BF47070108FE
:1036DC00F6070108DCF40008AE070108DE07010854
:1036EC007C07010891070108670701082DE9F843D9
:1036FC0090F8283000AF0446884603F01F0300F111
:10370C002806012B1CD0022B05D043BB90F82910A6
:10371C0009F0A1F803E0818DC9B201F073FE0546F2
:10372C00E8B1304608F0ABFF024668688368A2B97E
:10373C009B6853B1424631469847BD46BDE8F88375
:10374C00818DC9B209F077F8E9E76FF08503254A56
:10375C000BF040FA13500020EFE7DB68E9E794F830
:10376C002910204608F058FF05460028EDD03046B9
:10377C0008F085FF0346E0B92A69002AE5D0E9463E
:10378C0088B094F829106A46174850611748C2E966
:10379C0006010421164842F8101F4FF4045108F09A
:1037AC0086FFCD462B694246314620469847034654
:1037BC00CDE7EB68002BC8D0E94688B094F82930E7
:1037CC006A460C490A4851610849C2E906130423A8
:1037DC004FF4045142F8103F002308F068FFCD4627
:1037EC00EB68E0E70C00000014080108E00C01088D
:1037FC00C4F40008380801082DE9F04F85B01E46C6
:10380C008146884600AF924608F0BAFE054696B14E
:10381C00484608F0BAFE01280AD0414B6FF08502E9
:10382C000BF0D8F91A5000201437BD46BDE8F08FC4
:10383C00B5FA85F56D090AF1010429464846E2B24C
:10384C0008F090FF834630B9364A234601213648AA
:10385C0008F002FDE1E7446846B120683B1D616851
:10386C0003C3227A3C1D1A7007237B7108F10C06E6
:10387C00304608F072FE2278824203D9304608F0B6
:10388C006CFE02462146304608F045FEDBF80CB0D3
:10389C00BBF1000F1FD1B8F81010B9F82E309942B7
:1038AC0003D9C91A304608F051FE6C468AB0B8F8F4
:1038BC0010306A461D491362052351611C491A4890
:1038CC00C2E9061A42F8103F4FF42451002308F0C5
:1038DC00EEFEA546A7E7DBF8040083681B6B13B963
:1038EC00DBF800B0D4E7294698470028F8D0041F2D
:1038FC0054F8043F002BF3D01B78002BF0D030464B
:10390C0008F02BFE23681A78824203D9304608F05F
:10391C0024FE82B22168304608F0FDFDE8E700BFC6
:10392C000C0000005A080108C4F4000880080108C3
:10393C005C0D01082DE9F04F97B000F12803044607
:10394C000E4602AF3B610B7E7A6133F080050BD0E3
:10395C006FF00405AA4A0121AA4808F0A6FE2846E1
:10396C005437BD46BDE8F08F4A7E7969E1B111F15B
:10397C000C0F19D0D00717D40A46713208D1A24ABD
:10398C000321A04808F068FC3046FFF737FCE6E757
:10399C007A6901219B4800929C4A08F067FC3046EA
:1039AC00FFF72CFC7D69DAE7E8468CB002F0010CDD
:1039BC00C2F34000C2F38001B6F810E002AADFF8AF
:1039CC005092D16244F2C001C2E9073E0823C2E919
:1039DC000596C2E909C042F8103F0023894808F057
:1039EC0066FE737EC54613F0010900F0E985327E50
:1039FC00002A40F0E585338A072B0CD9F26813684E
:103A0C00A3625368E3627168E28DB9B9814A0121FE
:103A1C007C4808F04AFE804A01217A4808F045FEAD
:103A2C003046FFF7EBFB386908F029FE0346A06926
:103A3C00002B00F03586802100F03CBE04F12800FC
:103A4C0008F01DFED0B94B7E32B113F002031AD12F
:103A5C0088B002AA714805E013F0040313D188B0B2
:103A6C0002AA6F48C2E905010321664842F8101FFB
:103A7C004FF4C25108F01BFEC546CCE70AB9694A9F
:103A8C00C5E74B7EE1E73146002008F02CFD0646E9
:103A9C0028B9604A01215B4808F007FEC3E794F897
:103AAC00282000230BF096F85F4D12F0600F435165
:103ABC00C2F3411307D0032B40F0DB826FF0850378
:103ACC000BF088F83DE004F1280008F0D8FD94F8DC
:103ADC002930002840F02582013B0A2BEED801A1A9
:103AEC0051F823F05F3D0008C93A0008673E000812
:103AFC00C93A00081D3B0008C93A0008C93A000839
:103B0C00C93A0008593C0008C93A0008073D0008AA
:103B1C00A069618D03697F29D3F88030CED8A28D3E
:103B2C00002ACBD1E28D002AC8D194F82820D206E5
:103B3C00C4D194F83420022A3AD14FF0FF330BF061
:103B4C0049F82B504FF00008384A03212D486D4698
:103B5C0008F0ABFD88B002AA354B2A485361354BAF
:103B6C00354993614FF400739383344B42F8103F03
:103B7C003B6908F09CFDAD462B4D0BF02BF82B58F8
:103B8C00863304D12E4A03211E4808F08EFD0BF01B
:103B9C0021F82B58013306D194F83430294A0321EB
:103BAC00184808F059FBB8F1000F00F0048111E03F
:103BBC001B0714D5C9B208F09FFD804690B1638DE8
:103BCC00214A01210F4808F047FB0BF003F82B5852
:103BDC00002BB9D130464546FFF710FBBFE6012359
:103BEC0084F83D3094F83430012B07D1638D2BB918
:103BFC0084F834300AF0EEFF2B5802E10123F7E78A
:103C0C00AC080108C4F40008CD080108F20801084A
:103C1C002109010855090108B809010877090108AB
:103C2C0086090108970901080C000000F20B010835
:103C3C0019FC0008020C0108C01C800003000001E4
:103C4C0084050108090C0108CF090108204608F079
:103C5C0097FC638D8046C14A0321C14808F0FCFAE9
:103C6C00628DFF2A3FF62AAFE38D002B7FF426AF3F
:103C7C0094F82830D8067FF421AF94F83430002B18
:103C8C003FF45BAF3AB1D2B24146204608F092FD08
:103C9C0000283FF452AF618D94F83C308B4212D126
:103CAC00E84688B002AAAF49AD485161AE49C2E9B5
:103CBC00061304234FF4045142F8103F002308F07C
:103CCC00F6FCC54696E7C9B2204601F0C1F9638DF2
:103CDC00804630B1A54A01210090A14808F0C6FAEF
:103CEC0073E71A1E4FF00501204618BF4FF002096A
:103CFC0084F8349008F095FE7CE794F8283003F0B3
:103D0C001F03012B7FF4DAAEE38D002B7FF4D6AECC
:103D1C00628DFF2A3FF6D2AEA18DFF293FF6CEAEC3
:103D2C0094F83430022B7FF408AFD2B22046C9B2DB
:103D3C0001F014FD10F1020F804640F0F381884829
:103D4C0003218B4A08F0B1FC0AF044FF45F80080CF
:103D5C00F8E6E18DA38D00297FF4B0AE94F8341011
:103D6C0000293FF4EAAE012920D1002B7FF4E5AE07
:103D7C0012F01F021DD1638D012B1CD1E84688B0B7
:103D8C0002AA7C4B4FF4C851754853617A4B93612E
:103D9C00032342F8103F002308F089FC94F870309C
:103DAC00C5466FF3C30384F8703023E712F01F028B
:103DBC0007D0022A09D0714B0AF00CFF1B581BB319
:103DCC002EE6002B7FF4B9AED5E7B4F82AA0BAF1F1
:103DDC00000FF0D15FFA83F82046414601F098FDC0
:103DEC0003460AF0F7FE81462B50013302D14FF007
:103DFC00FF38A9E652464146204608F046FC55F8E5
:103E0C000930002B7FF49EAE01233869236308F040
:103E1C0036FC002840F0CD83E38D002B00F0C983E5
:103E2C00DFF85C91DFF838816D4688B002AA032375
:103E3C004FF4C6514046C2E9059642F8103F0023A4
:103E4C0008F035FC31460020AD4608F04CFB064628
:103E5C00002840F0AA834B4A1CE6E38DA18D002B71
:103E6C007FF42CAE638D5FFA81F9022B13D194F899
:103E7C00283003F01F0359EA03037FF41FAE01221D
:103E8C00090AA06908F015FC00287FF417AE01237D
:103E9C0084F83D30AEE694F8340000283FF44DAE83
:103EAC0001281DD100297FF448AE12F01F021AD14F
:103EBC00012B80D1E84688B002AA334B4FF4C8518D
:103ECC0027485361314B9361032342F8103F002381
:103EDC0008F0EDFB94F87030C54643F0080362E738
:103EEC0012F01F0219D0022A7FF465AF002B7FF469
:103EFC0062AF4946204601F0E9FC03460AF06AFE2F
:103F0C0080462B5001333FF472AF012249462046C4
:103F1C0008F0BBFB55F8083073E700297FF40DAEB1
:103F2C00C6E70A2B3FF6CAAD01A151F823F000BF3A
:103F3C009D3F0008C93A0008C93A0008C93A000870
:103F4C00C93A0008C93A000841400008C93A0008BB
:103F5C0009450008C93A000837450008F10901086D
:103F6C00C4F40008140A0108B60D0108380A010847
:103F7C005B0A0108810A0108A30D01080C0000006E
:103F8C002A0C0108C30C0108A10A0108920D0108B2
:103F9C00E38DA18D022B7FF491AD94F83430002B7E
:103FAC003FF4CBAD012B10D100297FF4C6AD12F03C
:103FBC001F020DD194F870304FEA9308C3F300132D
:103FCC0008F0020848EA030806E012F01F0210D0BD
:103FDC00022A12D04FF0000806F10C09484608F0EE
:103FEC00BCFAE38D98420ED26FF00B030AF0F2FD8F
:103FFC00A7E500297FF4A1ADDCE7C9B2204608F0A3
:10400C00F0FC8046E8E7EA4688B002AABF4B4FF4C2
:10401C000451BF485361BF4BC2E90638042342F830
:10402C00103F002308F043FB41464846D54608F0B4
:10403C0083FADFE5B4F82A80EA468AB04FEA1823FF
:10404C0002AA5FFA88F89946B349C2F820805161F8
:10405C00B249AF48C2E9061305234FF4245142F884
:10406C00103F002308F023FB94F82830D546D906DE
:10407C0004D031462046FFF739FB52E009F1FF39F5
:10408C00B9F10E0F3FF61AAD01A353F829F000BF9A
:10409C00D9400008234100084B410008C93A0008E8
:1040AC00C93A0008D142000847410008C93A000843
:1040BC00C93A0008C93A0008C93A0008C93A0008C8
:1040CC00C93A0008C93A00089B43000806F10C08DD
:1040DC00B4F82E90404608F040FA81450AD2B4F864
:1040EC002E90204608F04CFA48B101287FF4E6AC3B
:1040FC00A16F05E0404608F030FA8146F1E7616FA8
:10410C00002900F0FC800A784A4528BF4A46404600
:10411C0008F001FA6EE50023424631462046FFF7CF
:10412C006BFB80460AF056FD2B58002B7FF40CAD30
:10413C00B8F1000F3FF468AE4CE50123ECE74246C2
:10414C000321204608F07CFA824600283FF4B6ACE6
:10415C0008F090FAB4F82E90D0B9BAF814303B8627
:10416C00DAF810301B887B8606F10C08404608F004
:10417C00F4F9814501D2E08D02E0404608F0EDF9FA
:10418C0097F8302007F13001824228BF0246BEE783
:10419C009AF815304FF00008DAF808207B77604B5E
:1041AC0087F81C8013405F4A93427BD1102107F1A2
:1041BC00200003F08BFF00285BDB07F13002102896
:1041CC0007F120014346934628BF1020DFF858E141
:1041DC00984202F1020255D880000230387706F17D
:1041EC000C0A97F81C80504608F0B7F9C7F80CD0A9
:1041FC008AB002AA4D49062351614D49C2E9088093
:10420C00C2E9061942484FF4445142F8103F0023CA
:10421C0008F04DFA5046D7F80CD008F09EF997F8F4
:10422C001C80C84528BFC846404503D2504608F0FC
:10423C0094F98046B8F1020FC14607F11C015046B3
:10424C0028BF4FF00209A8EB09084A4608F063F9A9
:10425C00D9464FEA58030BEB58024A4528D118F0BF
:10426C00010F3FF4C7AC1BF80310504608F05CF983
:10427C00C0E458307FF422AC2E4A0121244808F0C7
:10428C0014FA1BE411F801CB01334FEA1C180CF0A3
:10429C000F0C1EF808801EF80CC002F8028C02F8F5
:1042AC0001CC95E79AF81430DAF810B03B7796E722
:1042BC0019F8011B5046C7E9022308F03DF9D7E96C
:1042CC000223CAE720464FF0000908F059F9C7F855
:1042DC003290C7F83690D4E91D83002808BF984661
:1042EC000A23204687F83030062387F8313008F04F
:1042FC004CF901287FF4E2ABB8F1000F1CD10AF0A5
:10430C0069FC6FF015082B5862E400BFBF0A010866
:10431C00C4F40008820D0108DE0A01086E0D0108C4
:10432C0000FF020000030200320D01082C0B0108F3
:10433C00430D01080A0B0108B8F802307B8698F887
:10434C00043087F8343098F8053087F8353098F811
:10435C00063087F8363098F8073087F8373098F8F9
:10436C001130E84688B087F8383002AA9D4B4FF4DC
:10437C00C8519D4853619D4B9361032342F8103FF4
:10438C004B4608F094F9C546B4F82E90ECE620465E
:10439C0008F0F6F820B101287FF490ABA36F00E091
:1043AC00636F002BABD05B88B3F5007F7FF686ABD9
:1043BC008F4B04F150083B63002387F83430236D96
:1043CC00984558D106F10C0A504608F0C6F87D8E77
:1043DC00E38D9D4228BF1D46A84203D2504608F0EB
:1043EC00BCF80546E38D504697F83010B7F832907C
:1043FC00FB60796008F0B1F8C7F808D08CB002AA5D
:10440C007C4B79685361FB68DFF8ECB1D36107230F
:10441C009062C2F818B07448C2E9081942F8103F0B
:10442C004FF46451002308F042F997F83020D7F884
:10443C0008D007F13001AA42504628BF2A4608F09E
:10444C006AF8052D94BF6D1B053DBDB96B4B0AF089
:10445C00C1FB1B58D5E45A7D0F2A08D11A7D798EE1
:10446C000A447A8697F83420013287F83420626D3A
:10447C009A42A7D01B68002BEDD1A3E7D4F850903B
:10448C00C145E3D04FF00608B9F1000FDED099F822
:10449C0015300F2B2CD199F814305046BB6008F016
:1044AC005CF8C7F80CD08AB002AA554B4FF44451B3
:1044BC0050624D48C2E9053BBB68C2E90735002391
:1044CC0042F8108F08F0F3F899F81420D7F80CD0B4
:1044DC005046AA42D9F8101028BF2A4608F01BF8FB
:1044EC0099F81430AB4294BFED1A6D1B002DADD072
:1044FC00636D4B45AAD0D9F80090C5E794F83430D9
:10450C0094F83C90002B3FF418ABE38D012B7FF417
:10451C00D5AA06F10C08404608F01FF8E38D984226
:10452C00FFF462AD49464046A0E694F8283003F00B
:10453C001F03012B7FF401AB204608F027F900285C
:10454C003FF4FBAAA38D4268FF2B3FF6B7AA127962
:10455C009A42FFF4B3AA0F2B3FF6B0AAE218E94631
:10456C008AB092F83E8002AA2649C2F82080516196
:10457C0025491D48C2E9061305234FF4245142F87E
:10458C00103F002308F093F8E38DCD46012B7FF408
:10459C0095AA06F10C09484607F0DFFFE38D984217
:1045AC00FFF422AD4146484660E6737E5A077FF51C
:1045BC003BAC3146204601F027F90546FFF7CFB951
:1045CC005B077FF530AA337E23BB236B0648012B98
:1045DC0007BF0E4A03210E4A022108F066F8FFF7C6
:1045EC00D3B900BF550B0108C4F400081B0D01081A
:1045FC00050F05006E0B0108090D01080C000000E9
:10460C00A80B0108CE0B0108F60C0108330C0108AD
:10461C00480C0108802B7FF406AA3046FEF7EEFD0D
:10462C00266B012E35D1274A0321274808F03DF887
:10463C0094F83D30002B3FF492A994F82930052BC7
:10464C000CD1618DA069C9B208F056F8054628B1A5
:10465C00638D1E4A31461C4807F0FEFD94F8293044
:10466C00032B11D1638D022B0ED1A18D0022A069D9
:10467C000E0A314608F01DF8054628B1144A334697
:10468C000121114807F0E8FD002384F83D30FFF7C5
:10469C0066B9104A02210C4808F007F8FFF75FB919
:1046AC00E38D002B3FF4C7A97B6913F10C0118BFF4
:1046BC000121C90108F0EDFB002305462363FFF738
:1046CC004EB900BF690C0108C4F40008CF090108F9
:1046DC00810C01089F0C01080B78062B10B414D127
:1046EC000369D3F89C20EFF31184102383F3128811
:1046FC00BFF36F8F00204B681860506A58B9C2E93D
:10470C00083384F31188BFF36F8F00220023034812
:10471C0010BC09F0FEBE03605362F2E7D80300241C
:10472C0038B50D4608F032F830B9104A012110485E
:10473C00BDE8384007F087BDC46804B938BD2B7894
:10474C00032B07D0052B0CD0022B08D16068836893
:10475C009B6902E0606883685B6903B198472468D1
:10476C00EBE760688368DB69F7E700BFD60D0108EB
:10477C00D4F400082DE9F04788B008AF00220023DC
:10478C000024404940480094CDE906236FF007030C
:10479C004FF48062CDE90334CDE901443B4B05F085
:1047AC004FFE6E463A49384809F0E4FF88B032466D
:1047BC00384B394D73610323B56142F8103F4FF408
:1047CC00C85123463548FDF723FB354CDFF8D48020
:1047DC00B546DFF8D490354EB4420BD3344C354E3D
:1047EC00DFF8C080DFF8C090B44227D30020BD466C
:1047FC00BDE8F08704F114020023BFF35B8F52E88D
:10480C00001F42E800300028F9D1BFF35B8FEA4665
:10481C0061688CB0086808AAC2E9074140F20351EC
:10482C005062C2E90585118542F8109F4FF454512E
:10483C001A48FDF7EDFA1834D546CDE704F1140209
:10484C000023BFF35B8F52E8001F42E800300028C2
:10485C00F9D1BFF35B8FEA4661688CB0086808AA8F
:10486C00C2E9074140F203515062C2E90585118546
:10487C0042F8109F4FF454510848FDF7C9FA183408
:10488C00D546B1E7801A0024000A0024C548000868
:10489C004EFB0008050E0108960F0108D4F4000821
:1048AC00E4040024280E010806000001FC04002486
:1048BC00FC040024140500242DE9F04784B0DFF833
:1048CC00C082102600AF4FF0FF334FF0FF32391D7E
:1048DC00404605F007FAFB681B69D3F89C40236A35
:1048EC0073B1EFF3118386F31288BFF36F8FD4F893
:1048FC0020A0BAF1000F1BD183F31188BFF36F8F87
:10490C003B79062BDFD0072BDDD801A252F823F020
:10491C00D5490008A7490008414A0008FD4900088C
:10492C00994A0008854A0008D34800087D4B0008C6
:10493C00616ADAF800208A45226208BF626283F35A
:10494C001188BFF36F8F9AF818305146DAF81E2091
:10495C0020465D061ED1FEF7EDFF05460028BED0B1
:10496C00E9468AB09AF818306A468649C2E9073A8D
:10497C000523C2E9051042F8103F00234FF42151E2
:10498C008148FDF745FA2A4607212046CD4608F016
:10499C0048F8A4E700F0BAFCDFE76D4688B06A4639
:1049AC007A4B53617A4B9361032342F8103F4FF4D7
:1049BC00C85100237448FDF72BFA00220121AD46A3
:1049CC00204608F02EF87EE76D4688B06A46714B9B
:1049DC0053616F4B9361032342F8103F4FF4C8515E
:1049EC0000236948FDF714FA0022AD461146E7E7AB
:1049FC006D4688B06A46684B5361654B93610323DF
:104A0C0042F8103F00234FF4C8515F48FDF700FAFD
:104A1C0094F87030AD4643F0040384F8703094F889
:104A2C003430022B03D1391D2046FFF779FE0022CA
:104A3C000321C5E76D4688B06A46584B5361544B09
:104A4C009361032342F8103F00234FF4C8514E48A2
:104A5C00FDF7DEF994F87030AD466FF3820384F8FD
:104A6C00703094F83430022B03D1391D2046FFF7F7
:104A7C0057FE00220221A3E794F83430022B7FF476
:104A8C0022AF391D2046FFF74BFE1CE76D4688B060
:104A9C006A46434B53613E4B9361032342F8103FEC
:104AAC0000234FF4C8513848FDF7B2F994F8703030
:104ABC00D4F81890AD466FF3820384F87030D9F8AF
:104ACC001030D9F808A0BFF35B8FD3F8A030BFF338
:104ADC005B8F9A071BD5DAF83C3048469847DAF8D2
:104AEC0024300021484698470546DAF840304846BD
:104AFC0098477DB12B4A0121234807F0A4FB0022E3
:104B0C000421204607F08DFF2A46072158E74FF075
:104B1C00FF35EFE72946204600F09AFA054608B122
:104B2C00214AE8E78021204607F058FF20B11F4AB0
:104B3C000121154807F087FBA06908F014FA034619
:104B4C001B4A0321104807F087FBA06908F00BFAF9
:104B5C00831E00220421584284F83420584194F8D2
:104B6C00703023F0680343EA401384F8703027E771
:104B7C00104A0121044807F066FBBA6806211FE7BA
:104B8C00D80300243D0E0108D4F40008670E010878
:104B9C00830F01087D0E0108950E0108A70E010870
:104BAC00B80E0108C80E0108F60E0108220F010804
:104BBC003F0F0108560F010838B5024605460C494F
:104BCC00806908F037FA044630B10A4A01210A48D4
:104BDC0007F039FB204638BD85F83C00284600F02C
:104BEC00CFF904460028F5D0A86908F056FAF1E789
:104BFC00E5460008660F0108D4F400082DE9F843D7
:104C0C004FF0010805460C4646462068002840D067
:104C1C0068F07F025FFA88F7D2B2114607F08EFD7A
:104C2C00E0B1D5F800901146484607F087FD48B929
:104C3C00134619480121194A07F00EFB6FF01500B5
:104C4C00BDE8F88322F08002103206FA02F229EA5B
:104C5C0002032B60236823EA020323603946206891
:104C6C0007F06CFD80B12A683946104607F066FDE6
:104C7C0008B94346DDE706FA08F122EA01022A6088
:104C8C00236823EA0103236008F10108B8F1100F2F
:104C9C00BBD10020D4E700BF04F50008AE0F01081B
:104CAC002DE9F04F8FB002AF5368D468FB6100233D
:104CBC00786098467961FA60BB623B61BCB93B692C
:104CCC00FA69093382F804809BB293701B0AD37083
:104CDC0053889F4A0321009343469E4807F0C6FA27
:104CEC00FB68DC68002C40F02581A346F4E000262C
:104CFC006D4688B0FE6202AA974B5361974B936145
:104D0C007B69D361042342F8103F924833464FF439
:104D1C000451FDF77DF86068AD4683681B6B002B72
:104D2C0000F0E28079699847002800F0DD80031FCD
:104D3C004546C4E90366BB61BA6952F8043FBA61DF
:104D4C000BB11A78D2B9454540F2CB80E268FB6AC8
:104D5C001A432369E260032100927E48804A07F0DF
:104D6C0085FA606883689B6A002B00F0BF809847C7
:104D7C008346002800F0BD807A4AA9E05A780B2AB5
:104D8C0008BF9D70BB691E687378042B19D1E3684A
:104D9C00FA6A1343E360F378002B40F08A80012217
:104DAC00B5702369AA4001351343EDB2236100238A
:104DBC00F278FB62B3780321009266486A4A07F0E6
:104DCC0055FABB69D3F8009099F80130052BB3D193
:104DDC007B686FF0120B4FF0010A9B69BB6099F86E
:104DEC0005105FFA8AF699F80420B86A42EA0122A3
:104DFC00FA8499F90220002AB8BF46F080063146A1
:104E0C0007F09CFC00285DD13146F86A07F096FC4F
:104E1C00002857D199F80630314699F803200093B1
:104E2C0007F12603B86807F0AAFF8346002849D18A
:104E3C00EA468AB099F8021002AA4C4816625061F0
:104E4C004B48C2E90601052142F8101F41485B4658
:104E5C004FF42451FCF7DCFF16F0800F4FF00103E8
:104E6C00FA6A18BF26F08000D54608BFB340F98C0B
:104E7C0018BF103089F80260A9F80410E94618BF71
:104E8C0083408AB01A43FA62BA6A134302AABB621D
:104E9C00FB6A3848C2E907130523C2E9050642F844
:104EAC00103F00234FF423512A48FCF7B1FFCD46A5
:104EBC0042E76B1E07F12C0107F12800B370FFF7D6
:104ECC009DFE74E70AF1010ABAF1100F87D12A4A44
:104EDC000121204807F0B7F958463437BD46BDE8E4
:104EEC00F08F6FF0150BF2E745463AE76FF0850B44
:104EFC0042E7D4F804806E467969404607F07BFCA3
:104F0C0088B002AA1D49D061C2E90518042142F8F3
:104F1C00101F4FF403515B460E48A846FCF778FF70
:104F2C00B5466068796907F066FC3B692468034400
:104F3C003B61C3E6E36804F10C0107F12800A360B0
:104F4C00FFF75CFE83460028C6D12468CAE600BF82
:104F5C00EE10010804F50008CB0F010897110108A9
:104F6C0056100108A0100108F70F010811100108D4
:104F7C0088110108291001087C100108C4100108CF
:104F8C002DE9F04183690446426F1B6993F8803028
:104F9C00C3F34113022B12D0032B12D0012B0CBFE5
:104FAC0010230823D3711F4F266EDFF87C8056B96F
:104FBC00A66D1E4FDFF87080FEB9354611E0202338
:104FCC00F0E74023EEE7324601212046FFF768FE6A
:104FDC00054648B173685B79154A0121124807F000
:104FEC003BF92846BDE8F081A36F5B7C03213A4670
:104FFC00404607F031F93668D9E7324600212046A1
:10500C00FFF74EFE054618B173685B79094AE4E771
:10501C00636F5B7C03213A46404607F01DF9366806
:10502C00CAE700BF3311010804F500086F1101082D
:10503C00101101084C110108034A0321034808B55B
:10504C0007F085FB002008BDB9110108BCF400086D
:10505C002DE9F04105460E4607F092FA804695F888
:10506C003C303BB3284607F091FB0746F8B10146AC
:10507C00284607F007FC10220446002105F13E00EB
:10508C0009F034FD002385F83C30FF6847B98CB13A
:10509C00194A0121194807F05AFB2046BDE8F08156
:1050AC00786883685B6A03B198473F68EEE76FF0F6
:1050BC003C04EDE71EB985F83C600024EDE7324670
:1050CC004146284607F04EFB074690B1024628465B
:1050DC0007F002FC04460028DFD185F83C60FC6830
:1050EC00002CEAD0606883681B6A03B19847246877
:1050FC00F6E76FF03C04D0E7A1060108BCF4000809
:10510C002DE9F041054688461446576807F021FB07
:10511C0095F87030D8070CD56FF00F08504A012164
:10512C00504807F014FB281D07F01AFB4046BDE859
:10513C00F081B8F1010F16D1284607F026FA38B9DC
:10514C00494A012147486FF0850807F000FBEAE760
:10515C00FB7999061AD5AB691B69D3F880309A078D
:10516C000CD4424AEDE7FB799B06F4D4B8F1000F5E
:10517C000AD12B6E4BBB05F158060BE0B8F1000FB2
:10518C00F7D0B8F1010F01D0394ADAE7AB6D83B92A
:10519C0005F1600633680022EBB96268B8F1000FC4
:1051AC0041D16B6F5B7C0133DBB253716A6F53740B
:1051BC0023E0A34207D12F4A01212A486FF015089A
:1051CC0007F0C5FAAFE71B68E1E7A34201D12A4A11
:1051DC00F2E71B68CEE79C4222D12368D2B97268F1
:1051EC003360944200D173600023236063685B7961
:1051FC00224A02211B4807F02FF8A16821B3284648
:10520C00FEF772F98046D8B11D4A0121154807F006
:10521C009EFA88E7136073689C4208BF7260E3E7EC
:10522C001A461B68B8E7B8F1010F02D0012353717D
:10523C00E3E7AB6F5B7C0133DBB25371AA6FB6E76C
:10524C00A06807F017FAB87100232360736823B9BC
:10525C00C6E900444FF0000865E71C607460F9E78C
:10526C001E120108BCF4000840120108DF110108ED
:10527C005E1201087E1201089B120108B812010887
:10528C00D5120108F8B5054600AF19B301290BD1A9
:10529C00174C184E29E0636828461968FBF7A8FAE2
:1052AC00A8B11834B442F6D36C4688B06A46124B97
:1052BC004FF4E2511148C2E905354FF40073938362
:1052CC000F4B42F8103F07F08CFAA54600242046FD
:1052DC00BD46F8BD0B4C0C4EE4E7636828461968D4
:1052EC00FBF786FA0028F2D01834B442F5D3DBE78A
:1052FC00FC040024140500240C130108CCF4000851
:10530C0003000001E4040024FC0400242DE9F04116
:10531C0090F8343000AF0C461546022B5CD107F0E8
:10532C0035FAC368002B4AD0D4F81A205968914238
:10533C0043D1D3E90261237E18061A4644BF23F0F9
:10534C008002103221FA02F2D00710D4E84688B05D
:10535C006A462549254851612549C2E906130423AB
:10536C004FF4045142F8103F07F03BFAC546237E38
:10537C0019061A4644BF23F080021032D640F207B9
:10538C0010D46E4688B06A461A4951611849C2E970
:10539C00061304234FF4045142F8103F134807F04E
:1053AC0020FAB546D4F81A0083681B69CBB12A469B
:1053BC0021469847BD46BDE8F0811B68B2E76E46B2
:1053CC0088B06A460C4B53614FF4C8510B4B936138
:1053DC00032342F8103FE1E76E4688B06A46084B5B
:1053EC00F1E76FF08500E5E72A130108CCF400081B
:1053FC00851401084613010864130108961401086A
:10540C008413010801F07F0311F0800F70B518BFF1
:10541C001033012504469D4090F83430022B06D001
:10542C000C4A01210C4806F00EFF002070BD90F8CC
:10543C003C6007F0A5F801462046324607F092F989
:10544C000028F2D0C0680028EFD083681D42EDD14F
:10545C000068F8E7AF130108CCF400082DE9F84315
:10546C0005460846114616461F46FFF70BFF044635
:10547C0000284AD0284607F0B7F995F87030DA07BB
:10548C0002D5234A01210CE0D4F80480BFF35B8FD2
:10549C00636904F11409BFF35B8FDB070CD51D4A5C
:1054AC0002216FF00F041C4806F0CDFE281D04F0FD
:1054BC00F3FC2046BDE8F883D8F804301BB1AB42AE
:1054CC0001D0164ADEE73A463146284607F04AF93B
:1054DC00C0B10023236003698BB9C0E90344BFF357
:1054EC005B8F59E8003F43F0010349E80032002A82
:1054FC00F7D1BFF35B8F0024C8F80450D6E71C60CB
:10550C000461ECE76FF03C04D0E76FF01204D0E7D5
:10551C001E120108D4130108CCF40008F61301087C
:10552C0001292DE9F047814600AF1646984632D145
:10553C002B4DDFF8B0A027E0B8F1000F04D04146A6
:10554C00284607F03EF9F0B969683346012248460F
:10555C000968FFF783FF0446A8B16B686D468AB0F3
:10556C001B686A462049D6612048C2E905134FF4EE
:10557C0000734FF4115113841D4B42F8103F07F088
:10558C0030F9AD4603E018355545D5D300242046F7
:10559C00BD46BDE8F087F9B16FF08504F7E7183523
:1055AC005545F3D2B8F1000F05D04146284607F017
:1055BC0008F90028F3D16968334600224846096887
:1055CC00FFF74CFF04460028E9D06B686D468AB0A3
:1055DC001B686A460749C6E7074DDFF820A0DFE7DE
:1055EC00FC040024140500242B140108CCF400083E
:1055FC000400000158140108E4040024FC040024F5
:10560C002DE9F04F85B09A468846834600AF4C682A
:10561C00914697F838307B6006F0B2FFA3680146DC
:10562C001B6B33B96FF0150420461437BD46BDE82B
:10563C00F08F204698470028F4D008F10C02061F82
:10564C000023BA6056F8045F0DB12A781AB93BBB37
:10565C006FF03C04E8E76A78042A29D103BBAA78E6
:10566C005245EFD1EA7879688A42EBD16C468AB020
:10567C006A463449C2F8208051613349C2E9061A9E
:10568C00052142F8101F4FF424513048FCF7C0FBA1
:10569C002B79A54633B92E4A03212C4806F0D3FDAD
:1056AC000024C1E735686B78052B05D00123C9E7C9
:1056BC00052AC7D1002BC5D0AB78B9F1010FFB601F
:1056CC0019D0B9F1020F36D06C468AB0A978D8F847
:1056DC000C306A461F4853620623C2E9050AC2E928
:1056EC00071942F8103F00234FF443511748FCF7B9
:1056FC008FFBA546DAE7BA682946DBF8180007F0F5
:10570C0021F904460028DFD06D468AB0D8F80C3059
:10571C006A4611495062C2E90519F968C2E90713D2
:10572C00062342F8103F00234FF441510748FCF781
:10573C006FFBAD4678E7D7E90221DBF8180007F0DC
:10574C001CF9DEE7B814010876150108FCF4000812
:10575C00D214010820150108EF1401082DE9F04FAF
:10576C0083B081460D46164602AF07F064F88046BA
:10577C0030B96FF0010420460437BD46BDE8F08F08
:10578C000F2DF6D809EB050AEB468AB09AF83E4085
:10579C0002AA1B4BC2E905350523C2E9074642F8AC
:1057AC00103F00234FF423511648FCF731FBDD4624
:1057BC002B460022414648460096FFF721FF002861
:1057CC00D7D100942B46022241464846FFF718FFDA
:1057DC0004460028CFD12B4601224146484600966C
:1057EC00FFF70EFF04460028C5D1D8F804008368E3
:1057FC005B6813B13246294698478AF83E60BAE78F
:10580C0050150108FCF400082DE9F8430B7E0C46FA
:10581C0000AF054659064ED11A0644D506F0F0FEE7
:10582C0048B126480121264A06F00DFD4FF0FF3005
:10583C00BD46BDE8F8832846D5F87490268AB5F89D
:10584C002E8006F09DFE98B3431E5A425A41920197
:10585C00238A43B346453146E88D28BF41468142F1
:10586C0021D2B1FBF2F302FB1313E3B96E468AB0FB
:10587C006A46DFF850C011620521C2F814C0DFF887
:10588C0048C0C2E906C042F8101F4FF424510B481F
:10589C00FCF7BEFA94F91830B546002BBEBF637EF8
:1058AC0043F0080363762146A86901F015F8BFE7B9
:1058BC0099F80720CCE76FF01500B9E7ECF4000875
:1058CC0097150108AB1501080216010870B50646BC
:1058DC0080690C4607F0DDFA054638B10A4A2346C2
:1058EC0002210A4806F0B8FC284670BD14F0800F5F
:1058FC004FF00102B36B1CBF24F080041034A240A3
:10590C001A43B263F0E700BFD2150108ECF40008AB
:10591C0070B5054680690E4607F0E5FA044638B1C5
:10592C00064A33460221064806F096FC204670BD16
:10593C00314605F1380006F0F7FFF7E7E9150108E5
:10594C00ECF40008F8B5064600AFEFF31181102215
:10595C0082F31288BFF36F8F254C236881F3118873
:10596C00BFF36F8F5B6893F8703013F0010316D19F
:10597C006C4688B06A461F4951611F4991610321E9
:10598C0042F8101F1D484FF4C851FCF741FA0A2287
:10599C000023A546304604F0FFFCBD46F8BDEFF3EE
:1059AC00118382F31288BFF36F8F256865B983F377
:1059BC001188BFF36F8F2368002BEED000220023D9
:1059CC00304604F0B5FCE8E761682A688D42226035
:1059DC0008BF626083F31188BFF36F8F686805F1AD
:1059EC000801C36998472946054808F034FDE2E7E9
:1059FC00EC1200241F160108731601080CF50008A0
:105A0C008003002480B500AF88B06A46074B536111
:105A1C00074B9361032342F8103F00234FF4C85106
:105A2C000448FCF7F5F9BD4680BD00BF4D160108D2
:105A3C00841601080CF5000830B585B00546002326
:105A4C0017486C4684E80600002203A904F0B4F859
:105A5C00024618B1FFF7D6FF05B030BD039B94E8A2
:105A6C0003005D60083383E80300EFF3118010231B
:105A7C0083F31288BFF36F8F039B1A60094A516836
:105A8C0059B9C2E9003380F31188BFF36F8F00223C
:105A9C000023054804F04CFCDEE70B605360F2E792
:105AAC0080030024EC120024000000242DE9F04FA8
:105ABC0083B016464B7802AF04690A2B24D00B2B0B
:105ACC0000F08780092BDFF87C917DD123694D880C
:105ADC00D3F804B04FEA1528DBF80830EDB2002BF0
:105AEC003FD16FF085036C4688B009F073F849F824
:105AFC00003002AA544B4FF4C8515361534B93617D
:105B0C00032342F8103F1CE0498823690E0A11F068
:105B1C00FF055A6808BF83F83460D368D3B1B2006C
:105B2C002946204698476C468AB002AA484B4FF447
:105B3C00245116625361474BC2E90635052342F8DE
:105B4C00103F454806F0D5FFA54600200437BD465A
:105B5C00BDE8F08F3B4B6FF0850209F03BF81A5013
:105B6C00E1E7B8F1020F25D0B8F1030F27D0B8F157
:105B7C00010F29D1EA4688B002AA384B53614FF481
:105B8C000451324B3448C2E90635042342F8103F25
:105B9C0006F0AFFFD546F2684146338A20460092A4
:105BAC002A46DBF80860B047034609F013F849F8B9
:105BBC000030CAE7EA4688B002AA294BDEE7EA467B
:105BCC0088B002AA274BD9E76FF0850309F002F8D9
:105BDC00EDE74D8826696368012DD6F804801B68B3
:105BEC0006D9184B6FF0850208F0F4FF1A50ACE799
:105BFC009B79002BF5D01C4AE9461C4B8AB0002D32
:105C0C0008BF134602AA1A49134851611949C2E93F
:105C1C00061340F201334FF414511384164B42F81F
:105C2C00103F06F066FF96F83530CD46AB428CD06F
:105C3C00E9B286F83510D8F81430002B85D0204600
:105C4C00984782E70C000000CD160108501A010895
:105C5C00A6160108621A0108F4F40008EA160108F5
:105C6C000D17010831170108A11601089A16010831
:105C7C00561701083C1A01080400000180B500AF5A
:105C8C0003698AB01B686A46084909485161094989
:105C9C00C2E9061340F201334FF414511384064B3E
:105CAC0042F8103F06F025FFBD4680BD6B1701087A
:105CBC00F4F40008BE1A01080400000180B500AF1E
:105CCC0003698AB01B686A46084909485161094949
:105CDC00C2E9061340F201334FF414511384064BFE
:105CEC0042F8103F06F005FFBD4680BD9217010833
:105CFC00F4F40008D11A010804000001B0B50569DC
:105D0C00044600AF284640F8144B0122002108F04D
:105D1C00B4FC0D4905F1240008F0FAFC8AB02368A4
